:020000040800F2
:1000000000000220796D0008E1010008ED01000800
:100010000502000829020008310200080000000063
:100020000000000000000000000000005502000871
:1000300061020008000000006D020008790200085B
:10004000C16D0008C16D0008C16D0008C16D0008D8
:10005000C16D0008C16D0008C16D0008C16D0008C8
:10006000C16D0008C16D0008C16D0008C16D0008B8
:10007000C16D0008C16D0008C16D0008C16D0008A8
:10008000C16D0008C16D0008451E0008C16D000863
:10009000C16D0008C16D0008C16D0008C16D000888
:1000A000C16D0008C16D0008C16D0008C16D000878
:1000B000C16D0008C16D00088D1D0008C16D0008EC
:1000C000C16D0008C16D0008C16D0008C16D000858
:1000D000C16D0008F9120008C16D0008C16D00086B
:1000E000C16D0008C16D0008C16D0008C16D000838
:1000F000C16D0008C16D0008C16D0008C16D000828
:10010000C16D0008C16D0008C16D0008C16D000817
:10011000C16D0008C16D0008C16D0008C16D000807
:10012000C16D0008C16D0008C16D0008C16D0008F7
:10013000C16D0008C16D0008C16D0008C16D0008E7
:10014000C16D0008C16D0008C16D0008C16D0008D7
:10015000C16D0008C16D000881120008C16D000862
:10016000C16D0008C16D0008C16D0008C16D0008B7
:10017000C16D0008C16D0008C16D0008C16D0008A7
:08018000C16D0008C16D00080B
:1001A00080B582B000AF02F05BF978607B68D3F86D
:1001B0001C3298477B6818464FF44871C82202F0F9
:1001C0001FFB7B6818464FF4C861C82202F018FB79
:1001D0007B6818464FF44871C82202F011FBFEE715
:1001E00080B400AFBD465DF8047B704780B582B037
:1001F00000AF00F091FA78607B681B694020042111
:100200009847F9E780B582B000AF00F085FA7860D2
:100210007B681B694020042198477B681B694FF469
:10022000807004219847F3E780B400AFFEE700BF79
:1002300080B582B000AF00F06FFA78607B681B6910
:100240004020042198477B681B694FF4807004218B
:100250009847F3E780B400AFBD465DF8047B704774
:1002600080B400AFBD465DF8047B704780B400AF3A
:10027000BD465DF8047B704780B500AF00F01EFD01
:1002800080BD00BF80B500AF154A154BD3F888304C
:1002900043F47003C2F88830124A124B1B6843F0D3
:1002A000010313600F4B00229A600E4A0D4B1B682E
:1002B00023F0847323F4803313600A4B0A4A5A6094
:1002C000084A084B1B6823F480231360054B002267
:1002D000DA6000F087F8024B4FF000629A6080BD50
:1002E00000ED00E0003802401030002480B487B0F8
:1002F00000AF00233B6100237B610223FB600023EE
:10030000BB6002237B60324B9B6803F00C033B61B4
:100310003B69042B07D0082B09D0002B3FD12D4B74
:100320002D4A1A603FE02B4B2C4A1A603BE0284BC9
:100330005B6803F480039B0DBB60254B5B6803F097
:100340003F037B60BB68002B0DD0244A7B68B2FB67
:10035000F3F21F4B596847F6C0730B409B0903FB30
:1003600002F37B610CE01C4A7B68B2FBF3F2184B92
:10037000596847F6C0730B409B0903FB02F37B618E
:10038000134B5B6803F440331B0C01335B00FB60D1
:100390007A69FB68B2FBF3F30E4A136003E00D4B7E
:1003A0000D4A1A6000BF0A4B9B6803F0F0031B095B
:1003B0000B4AD35CDBB23B61064B1A683B6922FAFD
:1003C00003F3044A13601C37BD465DF8047B704795
:1003D00000380240000000200024F40000127A00DF
:1003E0000400002080B400AF234A234B1B6C43F071
:1003F00080531364214A214B1B6843F480431360EC
:100400001D4A1D4B9B6893601B4A1B4B9B6843F422
:1004100000439360184A184B9B6843F4A0539360C1
:10042000154B174A5A60144A134B1B6843F08073EC
:10043000136000BF104B1B6803F00073002BF9D052
:10044000104B40F205621A600B4A0B4B9B6823F07D
:1004500003039360084A084B9B6843F002039360D0
:1004600000BF054B9B6803F00C03082BF9D1BD4678
:100470005DF8047B704700BF003802400070004008
:1004800010540007003C024080B483B000AF786095
:10049000002318460C37BD465DF8047B704700BF4B
:1004A00080B483B000AF78603960002318460C3701
:1004B000BD465DF8047B704780B483B000AF7860C0
:1004C000012318460C37BD465DF8047B704700BF1A
:1004D00080B485B000AFF860B9607A600023184638
:1004E0001437BD465DF8047B704700BF80B485B00B
:1004F00000AFF860B9607A604FF0FF3318461437E8
:10050000BD465DF8047B704780B485B000AFF860ED
:10051000B9607A60002318461437BD465DF8047B45
:10052000704700BF80B485B000AF78603960104B71
:100530001B68002B02D10E4B0E4A1A600C4B1B6835
:10054000FB600B4B1A683B6813446A46934202D91E
:100550004FF0FF3306E0064B1A683B681344044A29
:100560001360FB6818461437BD465DF8047B70477E
:10057000E0080020988C002080B586B000AFF860BD
:10058000B9607A6000237B6113E07B69BA68134429
:100590001B789BB20B48194605F030F900BF09489B
:1005A000402105F0EFF90346002BF8D07B690133B9
:1005B0007B617A697B689A42E7DB7B68184618376B
:1005C000BD4680BD0044004080B52DED028B8AB051
:1005D00004AF87ED010A38600023BB81D7ED017AB3
:1005E000F5EEC07AF1EE10FA09D5D7ED017AF1EE09
:1005F000677AC7ED017A2D233B7300237B73D7ED18
:10060000017AFCEEE77A17EE903A7B6197ED010AEA
:1006100006F0D8FBB0EE407AD7ED017A37EEC78A04
:100620003B6807EE903AF8EEE77AB2EE040AF0EE95
:10063000670A06F06DFCF0EE407A68EE277AB6EEB7
:10064000007A77EE877AFCEEE77A17EE903A3B6114
:1006500007F10C023B6800933B6801933B690293EE
:10066000054806497B6907F06DFE034B18461837AD
:10067000BD46BDEC028B80BDE408002028C6000802
:1006800080B483B000AF03463960FB7197F907303F
:10069000002B0BDA0D49FB7903F00F03043B3A689A
:1006A000D2B21201D2B20B441A7609E0084997F986
:1006B00007303A68D2B21201D2B20B4483F8002359
:1006C0000C37BD465DF8047B704700BF00ED00E0CD
:1006D00000E100E080B582B000AF78607B68B3F1E4
:1006E000807F01D3012311E00A4A7B6823F07F4316
:1006F000013B53604FF0FF300F21FFF7C1FF054B67
:1007000000229A60034B07221A600023184608371C
:10071000BD4680BD10E000E080B500AF2D4B1B68EA
:10072000002B52D1502007F045FB03461A46294BB7
:100730001A60284B1B68284A1A60264B1B68274AF8
:100740005A60244B1B68264A9A60224B1B68254A34
:10075000DA60204B1B68244ADA631E4B1B68234A6D
:100760001A611C4B1B68224A5A611A4B1B68214AAA
:100770009A61184B1B68204ADA61164B1B681F4AA6
:100780005A63144B1B681E4A9A63124B1B681D4A1E
:100790001A64104B1B681C4A5A640E4B1B681B4A98
:1007A0009A640C4B1B681A4A1A620A4B1B68194A56
:1007B0005A62084B1B68184A9A62064B1B68174A14
:1007C000DA62044B1B68164A1A63024B1B68184610
:1007D00080BD00BF4809002069090008BD09000864
:1007E000DD0900082508000815090008450A000869
:1007F0001D0B00084D0B0008350B00086D0B0008A1
:100800002D0C000831080008450800085D080008A4
:10081000550C0008690C00087D0C0008910C0008BC
:10082000A90C000880B500AF01F016F980BD00BF2B
:1008300080B582B000AF7860786800F07BFA083746
:10084000BD4680BD80B582B000AF0346FB71FB7929
:10085000184600F091FA0837BD4680BD80B588B0D3
:1008600000AF78607B68FB610023BB617B68002B75
:1008700007DA2D2000F080FA7B685B427B607B68A2
:10088000FB61BB690133BB61FB69092B03DC00BF62
:1008900000237B6135E0FB691D4A82FB0312921045
:1008A000DB17D31AFB61ECE701233B617B69FB603B
:1008B00008E03A6913469B0013445B003B61FB6808
:1008C0000133FB60BB695A1EFB689A42F1DC7A680F
:1008D0003B6992FBF3F20E4B83FB02139910D31783
:1008E000C91A0B469B000B445B00D31ABB60BB6864
:1008F000DBB23033DBB2184600F03EFA7B690133DD
:100900007B617A69BB699A42CEDB2037BD4680BDE8
:100910006766666680B582B000AF786039603B6814
:100920005B423B603B68B3F57A7F02DD4FF47A733C
:100930003B603B6813F57A7F01DA0A4B3B607B68CA
:1009400003F00103002B02D0386801F02DF87B681A
:1009500003F00203002B02D0386801F041F8083799
:10096000BD4680BD18FCFFFF80B500AF00F038FA2F
:100970004FF6FF70022100F065F800F09FFE812025
:1009800000F0D2FD7F2000F0CFFD00F07FFD094B8D
:100990001B68094AA2FB03239B091846FFF79AFE2E
:1009A0004FF4407002F0C8FB4FF0FF300021FFF71A
:1009B00067FE80BD00000020D34D621080B582B07C
:1009C00000AF7860786800F03BFB034801F0F4FB6F
:1009D0000837BD4680BD00BF38C6000880B500AFEF
:1009E00000F0C8FE01200021FFF794FF0220002143
:1009F000FFF790FF80BD00BF80B584B000AFF86006
:100A0000B9607A607B68012B06D1BB689BB2F8683D
:100A1000194603F0F1FC12E07B68022B06D1BB689B
:100A20009BB2F868194603F0E9FC08E07B68042BE8
:100A300005D1BB689BB2F868194603F0E9FC103792
:100A4000BD4680BD80B582B000AF786039607B68FC
:100A500003F00103002B04D02D4810213A68FFF762
:100A6000CBFF7B6803F00203002B04D029488021D0
:100A70003A68FFF7C1FF7B6803F00403002B04D042
:100A8000244840213A68FFF7B7FF7B6803F008036A
:100A9000002B05D01E484FF480513A68FFF7ACFF99
:100AA0007B6803F01003002B04D01B4802213A6836
:100AB000FFF7A2FF7B6803F02003002B04D0164849
:100AC00001213A68FFF798FF7B6803F04003002B91
:100AD00004D00F4801213A68FFF78EFF7B6803F0CE
:100AE0008003002B05D00A484FF400513A68FFF705
:100AF00083FF7B6803F48073002B05D004484FF418
:100B000080413A68FFF778FF0837BD4680BD00BFD7
:100B10000008024000000240001C024080B582B084
:100B200000AF7860786800F039FD00F0AFFC08375E
:100B3000BD4680BD80B582B000AF7860786800F0B7
:100B400063FD00F0A3FC0837BD4680BD80B582B0D0
:100B500000AF03463960FB71FB791846396800F035
:100B600071FD00F093FC0837BD4680BD80B582B0B2
:100B700000AF78607B68013B0F2B52D801A252F87E
:100B800023F000BFC50B0008CF0B0008D90B0008ED
:100B9000E30B0008ED0B0008F70B0008010C000840
:100BA0000B0C0008130C0008230C0008230C000891
:100BB000230C0008230C0008230C0008230C000859
:100BC0001B0C0008012000F0BDFF03462AE00520B1
:100BD00000F0B8FF034625E0032000F0B3FF034612
:100BE00020E0022000F0AEFF03461BE0062000F0EC
:100BF000A9FF034616E0042000F0A4FF034611E01D
:100C0000002000F09FFF03460CE000F0A5FE034625
:100C100008E000F079FE034604E000F06FF90346B7
:100C200000E0002318460837BD4680BD80B582B07D
:100C300000AF78607B68082B02D0092B03D005E059
:100C400000F0A6FE02E000F07BFE00BF0837BD46C4
:100C500080BD00BF80B582B000AF7860786801F0D9
:100C6000ABFA0837BD4680BD80B582B000AF786072
:100C7000786801F06DFA0837BD4680BD80B582B056
:100C800000AF7860786801F0DFF90837BD4680BDB5
:100C900080B582B000AF87ED000B97ED000B01F03F
:100CA0006DF90837BD4680BD80B582B000AF786071
:100CB000786800F02FF90837BD4680BD80B582B056
:100CC00000AFFFF729FD78607B68DB6C002B02D05A
:100CD0007B68DB6C98470837BD4680BD80B400AFA9
:100CE000BD465DF8047B704780B400AF034B044AF7
:100CF0001A60BD465DF8047B704700BFE409002020
:100D00000000080880B500AF03F094F8F12003F06C
:100D100001F94020022103F031F94820022103F0BB
:100D20002DF95020022103F029F9FFF7DDFF03F030
:100D300091F880BD80B582B000AF786003F07AF89A
:100D40000FE00C4B1A687B681B781046194603F0BD
:100D5000DFF9084B1B680133064A13607B680133D7
:100D60007B607B681B78002BEBD103F073F80837AE
:100D7000BD4680BDE409002080B582B000AF0346C7
:100D8000FB7103F057F8084B1A68FB7910461946B7
:100D900003F0BEF9044B1B680133034A136003F0F0
:100DA00059F80837BD4680BDE409002080B582B0FF
:100DB00000AF786003F03EF8074B1B68184679686F
:100DC00003F066F9044B1B680433034A136003F015
:100DD00041F80837BD4680BDE4090020000000004E
:100DE00080B58CB000AF8F20012102F01BFD0123E4
:100DF00087F82830022387F82B3003237B620323F4
:100E000087F82930002387F82A3007F12403374870
:100E1000194603F067FAC0237B6207F124033448C4
:100E2000194603F05FFA47F211037B6207F12403CE
:100E30003048194603F056FA4FF480637B62002372
:100E400087F8283007F124032A48194603F04AFAA4
:100E5000022387F82830022387F82B304FF40063F1
:100E60007B6207F124032248194603F03BFA20482D
:100E70000B21012203F0D0FA0120012102F002FD32
:100E800040F6B733FB850F23BB85FB8DFB61BB8D24
:100E90003B8300233B8400237B8307F11803164820
:100EA000194603F083FD6023BB800123FB800023F0
:100EB000FB6002233B823B1D0F48194603F004FFF1
:100EC0000D48082103F0B2FF0B48012103F0F6FDA5
:100ED0000948012104F01CFA0748012103F014FE1F
:100EE000002000F017F83037BD4680BD001C0240DE
:100EF00000000240000802400000014080B500AF41
:100F000003484FF4806103F063FA0346184680BD3E
:100F10000008024090B58FB000AF786040F6B7335C
:100F2000FB860F23BB867B68002B12D1FB8EBB6137
:100F3000BB8EBB820023BB830023FB8207F114031B
:100F40003148194603F032FD2F4B40F6B8321A648F
:100F500052E02BA3D3E90023C7E90A23BB8E013358
:100F6000184604F099FE02460B46D7E90A0105F03F
:100F700023F802460B46C7E90823786804F08CFE84
:100F800002460B46D7E9080105F016F802460B4663
:100F90001046194605F0A8F90346FB86FB8EFB6058
:100FA000BB8E3B8100233B8200237B8107F108033A
:100FB0001548194603F0FAFCFB8EB3F5167F04D2F0
:100FC000114AFB8E013B136416E00F4CFB8E184652
:100FD00004F052FE02460B46104619464FF000023E
:100FE0000A4B04F00BFD02460B461046194605F06D
:100FF0007BF903469BB223643C37BD4690BD00BFDE
:1010000000000000F406A4410000014000C082403E
:1010100080B483B000AF0346FB71084997F90730ED
:101020005B09FA7902F01F02012000FA02F241F88E
:1010300023200C37BD465DF8047B704700E100E0DB
:1010400080B582B000AF7860084B1B68184601F08D
:10105000C7F8074801F0C4F8064B00221A60786808
:1010600000F03CF80837BD4680BD00BFE80900200D
:10107000EC090020F88A002080B582B000AF03465A
:10108000FB710A4B1A68FB791046194601F032F9D8
:10109000064B1B6803F5004308331B68002B01D186
:1010A00000F006F80837BD4680BD00BFE809002003
:1010B00080B500AF084B1B6803F5004308331B687D
:1010C000002B08D1044B1B6803F5004308330122B1
:1010D0001A6000F09DF880BDE809002080B58AB054
:1010E00000AF78601020012102F0CCFB4FF48000AB
:1010F000012102F097FB4FF4C0633B62022387F8A3
:101100002430002387F82630022387F82530012376
:1011100087F8273007F120033848194603F0E2F832
:1011200036480921072203F077F934480A210722BB
:1011300003F072F97B683B610023BB820023FB82D2
:1011400000233B830023BB830C237B8307F1100325
:101150002B48194604F098FA294840F225510122FB
:1011600004F0F2FB2648012104F014FB4FF4A060C8
:1011700001F0E2FF46233B7300237B730023BB7324
:101180000123FB7307F10C03184601F0DFFF1D4834
:1011900002F036F81C4B4FF000621A601A4B4022E6
:1011A000DA60194B194A5A60174B00225A61164BE4
:1011B0004FF480629A61144B0022DA61124B0022D4
:1011C0001A62114B00225A620F4B03221A630E4B14
:1011D00000225A630C4B00229A630B4B0422DA6202
:1011E000094B00229A6206488021012204F0A2FBEA
:1011F0002520FFF70DFF2837BD4680BD00000240C7
:1012000000100140B8640240A80900200410014009
:1012100080B582B000AF174B1B68184601F0DEF8AE
:1012200078607B68002B21DD124B1B68184601F0AB
:10123000C3F838600F4B1B681846796801F0F4F862
:101240000D4801F0DDFF7B680C4A13613B680B4AD7
:1012500093600948094902F06BF807481021012200
:1012600002F034F90448012102F0ACF80837BD4619
:1012700080BD00BFE8090020B8640240A809002032
:1012800080B500AF1248134902F040F90346002B25
:101290001CD0114B1B68184601F000F80346002BC8
:1012A00009DD0D4B1B6803F50043083301221A606A
:1012B000FFF7AEFF06E0084B1B6803F50043083359
:1012C00000221A600248034902F048F980BD00BFBD
:1012D000B864024000800028E809002080B483B090
:1012E00000AF7860034A7B6813600C37BD465DF839
:1012F000047B7047F88A002080B582B000AF204898
:1013000040F2255104F048FB0346002B34D01C4822
:1013100004F078FA0346FB70FB781A48194600F08F
:10132000E9FFFB780A2B22D100237B600CE01548F3
:1013300001F014F80346BB70134A7B681344BA7873
:101340001A707B6801337B600E4800F063FF034630
:10135000002BECD00C4A7B68134400221A700B4B14
:101360001B68002B03D0094B1B68074898470448AB
:1013700040F2255104F036FB0837BD4680BD00BF62
:1013800000100140EC090020F8890020F88A0020B4
:1013900080B489B000AFF860B9607A603B60002328
:1013A000FB61BA6813469B001A447B681344002B08
:1013B00002DA7B685B42FB61FB69BB6159E0BA6999
:1013C0007B68D118BA6813469B0013440B447B61B9
:1013D0007B69132B00DD4FE03B68002B22DDFA68B0
:1013E000BB691344274AD35C1A463B6802FA03F3ED
:1013F000D9B2254A7B6913441B78D8B2FF223B68D7
:1014000002FA03F3DBB2DB43DBB202461340DBB28A
:101410000A461343DBB2D9B21B4A7B6913440A461E
:101420001A7023E0FA68BB691344164AD35C1A4663
:101430003B685B4242FA03F3D9B2134A7B69134417
:101440001B78D8B23B685B42FF2242FA03F3DBB25F
:10145000DB43DBB202461340DBB20A461343DBB286
:10146000D9B2094A7B6913440A461A70BB69013331
:10147000BB61BB69042BA2DD2437BD465DF8047B4C
:10148000704700BF50C60008108B002080B582B0A6
:1014900000AF22484FF4804102F0B0FF1F484FF4E4
:1014A000805102F0ABFF00237B601BE000BF1C48B3
:1014B000022103F077F90346002BF8D0194A7B6824
:1014C00013441B789BB21648194603F031F900BF4C
:1014D0001348022103F066F90346002BF8D07B681D
:1014E00001337B607B68132BE0DD00BF0C480221D9
:1014F00003F058F90346002BF8D000BF08488021BC
:1015000003F050F90346012BF8D004484FF4805102
:1015100002F072FF0837BD4680BD00BF00040240E4
:1015200000380040108B002080B582B000AF034629
:10153000FB7118484FF4804102F05EFF15484FF4EC
:10154000805102F05BFF00BF1348022103F02AF92B
:101550000346002BF8D0FB799BB20F48194603F0E5
:10156000E7F800BF0C48022103F01CF90346002BEA
:10157000F8D000BF0848802103F014F90346012B7E
:10158000F8D004484FF4805102F036FF0837BD46CA
:1015900080BD00BF000402400038004080B584B028
:1015A00000AF78600023FB6026E07A68154B83FB70
:1015B00002139910D317C91A0B469B000B445B000A
:1015C000D31ABB60BA6813469B00134403F1500260
:1015D000FB68C3F103031046194600220023FFF7FE
:1015E000D7FE7B68074A82FB03129210DB17D31ADF
:1015F0007B60FB680133FB60FB68032BD5DD103794
:10160000BD4680BD6766666680B584B000AF786011
:101610000023FB600FE07B681B781846F96800F038
:1016200011F87B6801337B60FB680133FB60FB686A
:10163000032B00DD03E07B681B78002BEBD1103718
:10164000BD4680BD80B582B000AF03463960FB71F6
:10165000FB79402B10D9FB795A2B0DD8FB79A3F1DC
:10166000410213469B001344A533184639680022F3
:101670000023FFF78DFE1DE0FB79602B11D9FB796C
:101680007A2B0ED8FB79A3F1610213469B00134419
:1016900003F245131846396800220023FFF778FE4D
:1016A00008E0FB79202B05D10020396800220023B7
:1016B000FFF76EFE0837BD4680BD00BF80B582B023
:1016C00000AF4FF48040012102F0D0F8264B4FF4D8
:1016D00040421A80244B4FF482725A80224B0022DF
:1016E0009A80214B4FF400725A811F4B10229A812D
:1016F0001D4B0022DA811D481B4902F0D7FE022053
:10170000012102F08FF802233B7102237B71002339
:10171000BB710023FB714FF420433B603B461448F0
:10172000194602F0DFFD4FF4A0433B6001233B71FB
:1017300002237B710023FB710023BB713B460C48E5
:10174000194602F0CFFD0A480D21052202F064FE81
:1017500007480F21052202F05FFE0448012102F034
:101760005BFF0837BD4680BDFC8A00200038004082
:101770000004024080B500AF00F008F800F01AF84D
:1017800000F078F800F048F980BD00BF80B500AFE8
:101790000120012102F06AF80220012102F066F81E
:1017A0000820012102F062F80720012102F03AF836
:1017B00080BD00BF80B582B000AF3B46184602F046
:1017C000EBFD02233B710123FB7148F203033B60F5
:1017D0003B462548194602F085FD08233B6002235D
:1017E0003B710123FB713B462048194602F07AFD0C
:1017F0004FF470733B6002233B7103237B71002322
:10180000BB710023FB713B461948194602F06AFD83
:1018100017480621022202F0FFFD15480721022287
:1018200002F0FAFD12480821022202F0F5FD1048EC
:101830000921022202F0F0FD0C480321012202F0EE
:10184000EBFD09480F21012202F0E6FD06480021C8
:10185000022202F0E1FD04480121022202F0DCFD37
:101860000837BD4680BD00BF0000024000040240B2
:101870000008024080B58AB000AF4FF47A73FB8451
:101880000023BB840223BB84FB8CFB61BB8C3B83AA
:1018900000233B8400237B8307F118031948194672
:1018A00003F084F86023BB800123FB800023FB60EE
:1018B00002233B823B1D1348194603F033F90123F1
:1018C000FB800023FB603B1D0E48194603F06CF9BA
:1018D0000123FB800023FB603B1D0A48194603F0EF
:1018E000ABF90123FB800023FB603B1D0548194633
:1018F00003F0EAF90348012103F006F92837BD4651
:1019000080BD00BF0004004080B400AF4FF08043B2
:101910005B6AA3F58033094A126813441A46074BE1
:101920001A604FF080434FF480325A62034B1B68B9
:101930001846BD465DF8047B704700BF4C09002087
:1019400080B400AF4FF080434FF480325A62BD46FE
:101950005DF8047B704700BF80B400AF0A4B5B6A40
:10196000A3F58033094A126813441A46074B1A60DC
:10197000054B4FF480325A62044B1B681846BD4633
:101980005DF8047B704700BF000C00405009002048
:1019900080B400AF034B4FF480325A62BD465DF80D
:1019A000047B7047000C004080B483B000AF7860C7
:1019B0007B68002B07DA094A7B685B425363074B5D
:1019C00000229A6305E0054B00225A63034A7B68B4
:1019D00093630C37BD465DF8047B704700040040FC
:1019E00080B483B000AF78607B68002B07DA094AC7
:1019F0007B685B42D363074B00221A6405E0054B0A
:101A00000022DA63034A7B6813640C37BD465DF835
:101A1000047B70470004004080B500AF0D480321EF
:101A20000022022303F09AFD4FF0804003210022A0
:101A3000002303F093FDFFF783FFFFF7A9FF05489D
:101A4000012103F061F84FF08040012103F05CF8C0
:101A500080BD00BF000C004080B582B000AF002305
:101A60007B600BE034497A6813465B001344DB006B
:101A70000B4400221A607B6801337B607B68042B77
:101A8000F0DD2D4B052283F824202B4B2B4A9A6244
:101A9000294B10229A85284B042283F83C20264BA0
:101AA000274A1A64244B0422A3F84420224B0C2218
:101AB00083F85420204B214A9A651F4B4022A3F8FB
:101AC0005C201D4B022283F86C201B4B1B4A1A67BB
:101AD000194B4FF48072A3F87420174B0B2283F834
:101AE0008420154B154AC3F88820134B2022A3F8F5
:101AF0008C20114B092283F89C200F4B0F4AC3F80E
:101B0000A0200D4B0822A3F8A4200B4B08221A7327
:101B1000094B00221A61084B00229A8200F090F8CB
:101B200000F0A6F800F0EAF800F04AF800F008F932
:101B30000837BD4680BD00BF288B0020000402404E
:101B4000000C024080B483B000AF786006497A6828
:101B500013465B001344DB000B441B6818460C372C
:101B6000BD465DF8047B7047288B002080B483B0AD
:101B700000AF786006497A6813465B001344DB00C7
:101B80000B445B6818460C37BD465DF8047B704714
:101B9000288B002080B483B000AF786007497A6852
:101BA00013465B001344DB000B4408331B681846E4
:101BB0000C37BD465DF8047B704700BF288B0020C2
:101BC00080B588B000AF5323BB820023FB82A523DE
:101BD000BB610023BB830023BB7707F114031748C5
:101BE000194602F0E3FE20233B8001237B80002383
:101BF000BB810023BB603B461048194602F092FFB0
:101C00000E48002103F0F8F801237B804623BB60D7
:101C10003B460A48194602F0C7FF0848002103F076
:101C2000F3F806480621012203F09EFB0348012138
:101C300002F06AFF2037BD4680BD00BF00080040AB
:101C400080B500AF0120012101F0ECFD022001214F
:101C500001F0E8FD0420012101F0E4FD0420012150
:101C600001F004FE4FF48070012101F00BFE80BDF5
:101C700080B582B000AF0023BB7102237B714FF4AB
:101C80007C733B6001233B710223FB713B46174889
:101C9000194602F027FB04233B603B4614481946D3
:101CA00002F020FB3C233B6003233B710023FB71CC
:101CB0003B461048194602F015FB03233B60032303
:101CC0003B710023FB713B460848194602F00AFBB2
:101CD0000E233B6003233B710023FB713B46064808
:101CE000194602F0FFFA0837BD4680BD00040240E5
:101CF000000C0240000002400008024080B586B09F
:101D000000AF01F081FE00233B6100233B60002314
:101D10007B710023FB600023BB6001233B75002324
:101D20003B713B460548194601F07CFE0348012102
:101D300001F0C4FE1837BD4680BD00BF0020014041
:101D400080B582B000AF1E233B7100237B7101235D
:101D5000BB710123FB713B1D184601F0F7F91223FB
:101D60003B713B1D184601F0F1F9064840F2052190
:101D7000012201F0F5FF044B00221A600837BD462E
:101D800080BD00BF00200140248B002080B500AF43
:101D90002848022103F0FEFA0346002B29D02548EB
:101DA000022103F003FB244B1A68244913465B000D
:101DB0001344DB000B4410331B68002B38D01E4B40
:101DC0001A681E4913465B001344DB000B441033B2
:101DD0001868194B1A68194913465B001344DB0055
:101DE0000B4410339B889BB21946012202F008FB7A
:101DF0001EE01048042103F0CDFA0346002B17D053
:101E00000C48042103F0D2FA0B4B1A680B49134615
:101E10005B001344DB000B4408331B79DBB208483A
:101E200019460122012301F081FE054801F0C4FE9C
:101E300080BD00BF0008004054090020288B00200E
:101E40000020014090B583B000AF464840F2052124
:101E500001F09EFF0346002B00F08180414840F2D4
:101E6000052101F0A3FF404B1B681E2B65DD3E4B97
:101E70001C683C4801F0D0FE03461A463B4B43F831
:101E800024203B4B1A683B4913465B001344DB009C
:101E90000B4410331B68002B18D0354B1A6835499A
:101EA00013465B001344DB000B4410331868304BBF
:101EB0001A68304913465B001344DB000B441033AF
:101EC0009B889BB21946002202F09AFA00233B60DD
:101ED00000237B6009E0254A7B6852F823303A688A
:101EE00013443B607B6801337B607B681F2BF2DD12
:101EF0001F4B1A681F4913465B001344DB000B4459
:101F00003A681A601A4B1B68002B06D11A4B1B68E3
:101F10000133194A1360184B1B68154B1B680133BA
:101F2000134A1360124B1B68062B02DD104B002274
:101F30001A600D4B00221A6011E00B4B1C68094817
:101F400001F06AFE03461A46084B43F82420064B6C
:101F50001B680133044A1360024801F02DFE0C3760
:101F6000BD4690BD00200140248B0020188C00202D
:101F700054090020288B00205C09002080B588B01F
:101F800000AF87ED000BD7E900014FF000024FF0E2
:101F9000000304F059F90346002B08D02D20FFF769
:101FA0006BF83B683B607B6883F000437B60D7E95C
:101FB000000104F071F903463B61386903F06CFEDF
:101FC00002460B46D7E9000103F018FD02460B4616
:101FD000C7E90623386900F037F82E20FFF74CF8E0
:101FE00000237B6127E0D7E906014FF00002154B83
:101FF00003F0B8FE02460B46C7E90623D7E90601FF
:1020000004F04AF90346FB60F86803F045FE024617
:102010000B46D7E9060103F0F1FC02460B46C7E97F
:102020000623FB68DBB23033DBB21846FFF724F837
:102030007B6901337B617B69062BD4DD2037BD468C
:1020400080BD00BF0000244080B588B000AF78603C
:102050007B68FB610023BB617B68002B07DA2D20C6
:10206000FFF70AF87B685B427B607B68FB61BB69BA
:102070000133BB61FB69092B03DC00BF00237B61DB
:1020800035E0FB691D4A82FB03129210DB17D31A5D
:10209000FB61ECE701233B617B69FB6008E03A6987
:1020A00013469B0013445B003B61FB680133FB60FC
:1020B000BB695A1EFB689A42F1DC7A683B6992FB65
:1020C000F3F20E4B83FB02139910D317C91A0B4678
:1020D0009B000B445B00D31ABB60BB68DBB23033A0
:1020E000DBB21846FEF7C8FF7B6901337B617A6972
:1020F000BB699A42CEDB2037BD4680BD6766666607
:1021000080B586B000AF786000237B6103233B611C
:1021100017E03B69DB007A6842FA03F3FB73FB7B51
:10212000002B05D17B69002B02D13B69002B05D127
:1021300001237B61FB7B1846FEF79EFF3B69013B59
:102140003B613B69002BE4DA1837BD4680BD00BF18
:1021500080B584B000AF78600323FB600BE0FB68C0
:10216000DB007A6842FA03F3DBB21846FEF784FF1D
:10217000FB68013BFB60FB68002BF0DA1037BD46C3
:1021800080BD00BF80B582B000AF0346FB7100BFC9
:10219000084B1B889BB203F04003002BF8D0FB795F
:1021A000DBB29BB20348194603F028FB0837BD4653
:1021B00080BD00BF0010014080B582B000AF7860E4
:1021C00007E07B681B781846FEF756FF7B680133F3
:1021D0007B607B681B78002BF3D10837BD4680BD40
:1021E00080B483B000AF78607B6803F500430022C1
:1021F0001A607B6803F50043043300221A607B6891
:1022000003F50043083300221A600C37BD465DF821
:10221000047B704780B483B000AF78607B6803F5BF
:1022200000431A687B6803F5004304331B689A4235
:1022300001D1012300E0002318460C37BD465DF8AC
:10224000047B704790B583B000AF78607B6803F57E
:10225000004304331B685C1C786800F013F80346E5
:1022600094FBF3F203FB02F3E21A7B6803F50043ED
:102270001B689A4201D1012300E0002318460C3765
:10228000BD4690BD80B483B000AF78604FF400438A
:1022900018460C37BD465DF8047B704780B483B0A8
:1022A00000AF78607B6803F5004304331A687B68ED
:1022B00003F500431B689A420ADB7B6803F5004381
:1022C00004331A687B6803F500431B68D31A0BE0DC
:1022D0007B6803F500431B68C3F500427B6803F588
:1022E000004304331B68134418460C37BD465DF8A1
:1022F000047B704780B582B000AF78600B46FB70FE
:102300007868FFF79FFF0346002B01D0002321E0F0
:102310007B6803F5004304331B687A68F978D1546D
:102320007B6803F5004304331B685A1C7B6803F584
:10233000004304331A607B6803F5004304331B68D1
:10234000B3F5004F05DB7B6803F50043043300223F
:102350001A60012318460837BD4680BD80B584B099
:1023600000AF78607868FFF755FF0346002B01D077
:1023700000231CE07B6803F500431B687A68D35C8C
:10238000FB737B6803F500431B685A1C7B6803F5ED
:1023900000431A607B6803F500431B68B3F5004FE8
:1023A00004DB7B6803F5004300221A60FB7B1846C0
:1023B0001037BD4680BD00BF80B483B000AF7860E9
:1023C0007B6803F500431B681A467B681344184674
:1023D0000C37BD465DF8047B704700BF80B483B006
:1023E00000AF78607B6803F5004304331A687B68AC
:1023F00003F500431B689A420ADB7B6803F5004340
:1024000004331A687B6803F500431B68D31A05E0A0
:102410007B6803F500431B68C3F5004318460C377F
:10242000BD465DF8047B704790B583B000AF78601F
:1024300039607B6803F500431A683B68D4187868F4
:10244000FFF720FF034694FBF3F203FB02F3E21ACB
:102450007B6803F500431A600C37BD4690BD00BF92
:1024600080B500AF104B1B68002B19D14FF40870DA
:1024700005F0A0FC03461A460B4B1A600A4B1B687A
:102480000A4AC3F81C22084B1B680022C3F8982193
:10249000054B1B6800225A60034B1B6800221A6020
:1024A000014B1B68184680BD60090020B12400085C
:1024B00080B582B000AFFEF72FF97860FFF7D0FF4C
:1024C00038607B681B6898477B689B6898477B6887
:1024D000DB69194898477B68DB6898473B6803F5D8
:1024E000D07318469FED0C0B9FED0D1B9FED0E2B2F
:1024F00000F014FA3B6803F5EC7318469FED0C0BE3
:102500009FED071B9FED062B00F008FA7B680B4A36
:10251000DA640837BD4680BD0000004008AC7C3F4F
:102520000000000000000000000000E04D62603F7D
:10253000000000E0E2362A3F30C80008E12500082C
:1025400080B586B000AFFEF7E7F8F860FFF788FFC8
:10255000B860FB681B6A20489847BB68D3F81832FC
:102560007B607B687B6100233B611CE0FB685B6BED
:102570000720984707EE900ABB6893ED857AF8EE3E
:10258000E77A77EE277ABB68C3ED857A3B6901333A
:102590003B6100BFBB68D3F818227B699A42F9DD22
:1025A0007B6901337B61BB68D3F818227B68D31A3F
:1025B000C72BDBDDBB68D3ED857A9FED087AC7EECC
:1025C000877ABB68C3ED857ABB684FF00002C3F819
:1025D00010221837BD4680BD38C8000800004843A7
:1025E00090B589B000AFFEF797F8F861FFF738FFB4
:1025F000B861BB69D3F818325A1CBB69C3F81822FA
:10260000FB695B6B0720984707EE900AB8EEE77A04
:10261000BB69D3ED857A77EE677A9FED757AC7EE61
:10262000877AC7ED057ABB6993ED847AD7ED057A91
:10263000DFED706AF4EEE67AF1EE10FA08DCD7ED21
:10264000057ADFED6D6AF4EEE67AF1EE10FA02D566
:10265000D7ED057A01E0DFED697A77EE277ABB697D
:10266000C3ED847AFB695B6B012098473861FB6995
:102670005B6B04209847F860BB6903F5D0743A6936
:10268000FB681344DA0F13445B10C3F54343503324
:10269000184603F001FB02460B4620469FED520B05
:1026A00043EC112B00F074F953EC102B1046194633
:1026B00003F03AFE0346BB60BB6903F5D0743A6988
:1026C000FB68D31A03F57A63184603F0E5FA02466D
:1026D0000B4620469FED440B43EC112B00F058F9BC
:1026E00053EC102B1046194603F01EFE03467B6088
:1026F000D7ED027AF5EEC07AF1EE10FA0ADDFB6949
:102700001B69042001219847FB691B6920200221D5
:10271000984709E0FB691B69202001219847FB6964
:102720001B690420022198473B69C3F5434350339A
:1027300049F6404293420ADDFB69DB6B0120002130
:102740009847FB69DB6B0220002198471BE0FB697F
:10275000DB6B97ED027AD7ED017A77EE677AFDEEC3
:10276000E77A012017EE901A9847FB69DB6B97ED2B
:10277000027AD7ED017A77EE277AFDEEE77A02202A
:1027800017EE901A9847BB69184600F0B1F8386008
:102790003B68002B21D0BB69D3F89831002B05D1C1
:1027A000FB691B6B3A68126810469847BB69D3F8FF
:1027B00098315A1CBB69C3F898213B685A68BB69B9
:1027C000D3F898319A420CDCBB690022C3F89821F7
:1027D000BB69184600F076F803E0FB691B6B00202C
:1027E00098472437BD4690BD000000000000F03F30
:1027F000008C52476F12033B6F1203BB00000000B6
:1028000080B584B000AFF860B9607A60F86800F015
:1028100025F80346002B01D000231BE0FB685A6813
:10282000FB680132B96843F83210FB685B68FA68EC
:102830000133DB0013447A685A60FB685B685A1CFA
:10284000FB685A60FB685B68312B02DDFB68002285
:102850005A60012318461037BD4680BD80B483B04E
:1028600000AF78607B685B685A1C0B4B83FB0213DC
:102870001911D317CB1A322101FB03F3D31A7A684B
:102880001268934201D1012300E0002318460C375F
:10289000BD465DF8047B70471F85EB5180B483B063
:1028A00000AF78607B685A687B681B689A4201D1E8
:1028B000012300E0002318460C37BD465DF8047B79
:1028C000704700BF80B483B000AF78607B681B683E
:1028D0005A1C7B681A607B681B68312B02DD7B68A1
:1028E00000221A600C37BD465DF8047B704700BFBC
:1028F00080B582B000AF78607868FFF7CFFF0346FD
:10290000002B01D0002305E07B681B680133DB004E
:102910007A68134418460837BD4680BD80B489B034
:1029200000AFF86187ED040B87ED021B87ED002BEC
:10293000F969D7E90423C1E90023F969D7E902233A
:10294000C1E90223F969D7E90023C1E90423F96940
:102950004FF000024FF00003C1E90623F9694FF080
:1029600000024FF00003C1E90823F9694FF00002AB
:102970004FF00003C1E90A23F9694FF000024FF05C
:102980000003C1E90C232437BD465DF8047B704782
:10299000B0B586B000AF786187ED020B87ED001B04
:1029A0007969D7E90023C1E906237B69D3E90845A2
:1029B000D7E90001D7E9022303F0D4F902460B4618
:1029C0002046294603F01CF802460B467969C1E906
:1029D00008237B69D3E906017B69D3E90C2303F063
:1029E0000DF802460B4610461946D7E9022303F0BC
:1029F000E3FA02460B467969C1E90A237969D7E906
:102A00000023C1E90C237B69D3E900017B69D3E989
:102A1000062303F0A7F902460B4614461D467B69C0
:102A2000D3E902017B69D3E9082303F09BF902464D
:102A30000B462046294602F0E3FF02460B461446A9
:102A40001D467B69D3E904017B69D3E90A2303F0BE
:102A500089F902460B462046294602F0D1FF02467C
:102A60000B4643EC172BB0EE470AF0EE670A183717
:102A7000BD46B0BD80B584B000AF78607B680022F1
:102A8000DA617B684FF000029A617B684FF00002C8
:102A9000DA627B6893ED007A7B68D3ED017AB4EE5D
:102AA000E77AF1EE10FA01DD1F4B01E04FF07E53A3
:102AB000FB60786800F03AF853EC102B104619468A
:102AC00003F032FC02467B685A627B6893ED007A21
:102AD0007B68D3ED036A7B68D3ED097A66EEA77A4B
:102AE00077EE277A7B68C3ED0A7A7B6893ED0A7AE2
:102AF000D7ED037A27EE277A7B68D3ED016AD7ED0D
:102B0000037A66EEA77AB4EEE77AF1EE10FA4CBFDC
:102B100001230023DBB283F00103DBB21A467B689A
:102B20001A631037BD4680BD000080BF80B52DED13
:102B3000028B8EB000AF78607B68DB687B637B685C
:102B40001B693B637B681B68FB627B689B68BB629D
:102B50007B685B697B6297ED0D7AD7ED0C7A27EE87
:102B6000277AD7ED0D6AD7ED0D7A66EEA77A77EE64
:102B7000677AC7ED087AD7ED0B7A37EEA77AD7EDEB
:102B80000C7A27EE277AD7ED0B7A77EEA76AD7ED86
:102B90000D7A66EEA77A77EE677AC7ED077A97ED3A
:102BA0000A7AD7ED0A7A27EE277AD7ED0B6AD7EDA6
:102BB0000B7A66EEA77A37EE677AD7ED097A77EE69
:102BC000A76AD7ED0C7A66EEA77A77EE677AC7ED3B
:102BD000067A97ED077AD7ED077A27EE277AD7EDB1
:102BE000087AF1EE006A67EEA66AD7ED067A66EE1D
:102BF000A77A77EE677AC7ED057AD7ED057AF5EE15
:102C0000C07AF1EE10FA04D54FF000024FF0000345
:102C100087E0D7ED087AF5EE407AF1EE10FA04D1AC
:102C20004FF000024FF000037BE0786903F046F8B4
:102C300002460B4643EC102B04F00CF953EC102B1E
:102C40001046194603F070FB07EE100AD7ED077A1D
:102C500037EE677AD7ED087A77EEA77AC7EE277A4C
:102C6000C7ED047AD7ED077AB1EE678A786903F089
:102C700025F802460B4643EC102B04F0EBF853EC1E
:102C8000102B1046194603F04FFB07EE900A38EE62
:102C9000677AD7ED087A77EEA77AC7EE277AC7ED7D
:102CA000037AD7ED047AF5EEC07AF1EE10FA0CDD76
:102CB000D7ED037AF5EEC07AF1EE10FA05D5386952
:102CC00002F0FCFF02460B462BE0D7ED037AF5EE4F
:102CD000C07AF1EE10FA0CDDD7ED047AF5EEC07A89
:102CE000F1EE10FA05D5F86802F0E8FF02460B464F
:102CF00017E0D7ED047AF5EEC07AF1EE10FA0BD5B5
:102D0000D7ED037AF5EEC07AF1EE10FA04D54FF064
:102D100000024FF0000304E0386902F0CFFF0246E2
:102D20000B4643EC172BB0EE470AF0EE670A383734
:102D3000BD46BDEC028B80BD80B58CB000AFF860A5
:102D400087ED020AC7ED010A87ED001AFB6893EDD3
:102D5000067AD7ED007A77EE277AFB68C3ED067A1C
:102D6000FB68D3ED0B7A97ED027A77EE677AC7EDC1
:102D7000027A4FF00003BB624FF00003FB624FF09A
:102D800000037B62FB6893ED007AFB68D3ED017A68
:102D9000B4EEE77AF1EE10FA01DDB34B01E04FF04B
:102DA0007E533B62FB6893ED007AFB68D3ED017ABA
:102DB000B4EE677AF1EE10FA27D1FB6893ED007A52
:102DC000FB68D3ED027AB4EE677AF1EE10FA1CD10B
:102DD000FB6893ED057AD7ED087A27EE277AD7EDD1
:102DE000026AD7ED087A66EEA77AB4EEE77AF1EEDA
:102DF00010FA02D8FB680422DA61FB689B68184667
:102E000002F05CFF02460B4683E1FB68DB69042BA2
:102E100000F27B8101A252F823F000BF312E00089E
:102E2000432E0008552F00086D300008FB300008C5
:102E3000FB680122DA61FB68BA68DA624FF00003CE
:102E4000BB60FB6893ED007AFB68D3ED036AFB6817
:102E5000D3ED067A66EEA77A77EE277AC7ED077A82
:102E600097ED077AD7ED087A27EE277AFB68D3ED3E
:102E7000016AD7ED087A66EEA77AB4EEE77AF1EE4A
:102E800010FA0ADBFB680222DA61FB685B6818460D
:102E900002F014FF02460B463BE1FB68D3ED047AD7
:102EA000F5EE407AF1EE10FA26D0FB6893ED027A47
:102EB000D7ED077A37EE677AFB68D3ED047AC7EE71
:102EC000277AC7ED0A7A97ED077AD7ED0A7A27EEC7
:102ED000277AFB68D3ED047AF6EE006A67EEA66AFD
:102EE000D7ED0A7A66EEA76AD7ED0A7A66EEA77A78
:102EF00077EE277AC7ED0B7AFB6893ED057AD7ED6D
:102F0000027A37EE677AD7ED087A27EE277AD7ED7F
:102F10000B6AD7ED087A66EEA77AB4EEE77AF1EE9F
:102F200010FA11D5FB680322DA61FB68FA695A606E
:102F3000FB685A6AFB681A62FB685B68184602F015
:102F4000BDFE02460B46E4E0F86902F0B7FE024619
:102F50000B46DEE0FB68D3ED047AF5EE407AF1EE45
:102F600010FA28D0FB6893ED027AFB68D3ED017A62
:102F700037EE677AFB68D3ED047AC7EE277AC7EDA0
:102F80000A7AFB6893ED017AD7ED0A7A27EE277A61
:102F9000FB68D3ED047AF6EE006A67EEA66AD7ED19
:102FA0000A7A66EEA76AD7ED0A7A66EEA77A77EE16
:102FB000277AC7ED0B7AFB6893ED057AD7ED027A95
:102FC00037EE677AD7ED016AD7ED007A66EEA77A19
:102FD00037EE677AD7ED087A27EE277AD7ED0B6AB6
:102FE000D7ED087A66EEA77AB4EEE77AF1EE10FA3A
:102FF00031D8FB6893ED057AD7ED027A37EE677A20
:10300000D7ED016AD7ED007A66EEA77A37EE677AD8
:10301000D7ED0B7A77EE677AC7ED067A97ED067AE9
:10302000D7ED017AC7EE277AC7ED057AFB68032250
:10303000DA61FB6893ED067AD7ED057A77EE677A69
:10304000FB68C3ED087AFB685B68184602F036FE41
:1030500002460B465DE0FB685B68184602F02EFEF8
:1030600002460B4655E000BF000080BFFB6893EDB1
:10307000027AFB68D3ED017A37EE677AFB68D3ED0D
:10308000047AC7EE277AC7ED0A7AFB6893ED067AD1
:10309000FB68D3ED087A77EE677AC7ED097AFB68AB
:1030A00093ED017AFB68D3ED046AD7ED097A66EEF9
:1030B000A77A77EE277AC7ED077AFB6893ED067A51
:1030C000FB68D3ED087A37EE677AD7ED0A7AB4EE6B
:1030D000E77AF1EE10FA0ADBFB680422DA61FB689A
:1030E0009B68184602F0EAFD02460B4611E0F869BB
:1030F00002F0E4FD02460B460BE0FB689B681846B5
:1031000002F0DCFD02460B4603E04FF000024FF0F8
:10311000000343EC172BB0EE470AF0EE670A303796
:10312000BD4680BDD8CA000800000020E00800208D
:10313000E0080020988C002040F0BF60024B40F473
:103140000030D860704700BF00ED00E0C3785BB985
:10315000037818485A09203203F01F03012101FAAD
:1031600003F340F822307047134BF0B4D968457828
:10317000827804780F4EC943C1F30221C1F10407DC
:10318000FFB20F23BD400B411340E9B20B4304F1E2
:10319000604202F561421B01DBB282F80033037822
:1031A000012203F01F015B098A4046F82320F0BC8E
:1031B000704700BF00E100E000ED00E021F0604159
:1031C00021F07F01014B08439860704700ED00E05B
:1031D000044A136919B923EA0000106170471843C3
:1031E0001061704700ED00E0044A136804280CBF2A
:1031F00043F0040323F004031360704710E000E081
:1032000002683749002310B422F0010221248842C9
:103210000260036043608360C360036144614DD01A
:10322000304B984235D0304B984239D02F4B984292
:103230003DD02F4B984247D02E4B984248D02E4B32
:1032400098421DD02D4B98421ED02D4B984243D012
:103250002C4B98421DD02C4B984221D02B4B98429E
:1032600025D02B4B98422FD02A4B984230D02A4B56
:10327000984205D0294B984206D05DF8044B704720
:10328000274A43F8942CF8E74FF03D5243F8AC2C12
:10329000F3E74FF4746243F8202C5DF8044B704759
:1032A0004FF4741243F8382C5DF8044B70474FF01C
:1032B000746243F8502C5DF8044B7047194B5DF86D
:1032C000044B3D229A607047174A43F8642CD4E7B8
:1032D000164A43F87C2CD0E73D2243F8082CCCE773
:1032E0001060024028600240406002405860024086
:1032F0007060024088600240A0600240B8600240F6
:103300001064024028640240406402405864024055
:103310007064024088640240A0640240B8640240C5
:1033200000003D20006002403D000020400F0020D2
:103330002DE9F04182B08B6A0193CB684F698E69A9
:10334000CD690C6A4A6AD0F800C0DFF850E09846B0
:103350000B6848EA030848EA07073E4335432C4315
:10336000019B0E6B0D69224313434A6B4C68134358
:103370008A6B0CEA0E0E134343EA0E0303604269A4
:10338000CB6A896822F007023343134343614560E7
:103390008460C16002B0BDE8F08100BF3F801CF0D6
:1033A0000023036043608360C36003614361836102
:1033B000C361036243628362C362036343638363E3
:1033C000704700BF036819B923F001030360704719
:1033D00043F0010303607047036819B923F4004305
:1033E0000360704743F4004303607047036819B9F2
:1033F00023F020030360704743F02003036070470D
:1034000041607047406880B2704700BF036822B9CE
:1034100023F4002303600161704743F40023036039
:1034200001617047036819B923F480230360704772
:1034300043F48023036070470AB9C160704701619B
:10344000704700BF0068C0F3C0407047006800F0DC
:1034500001007047406900F0380070470B4B0C4A80
:1034600010B40C4CA04294BF184610468B004CBFC1
:10347000436803685DF8044B21F0F02121F08211CC
:10348000194214BF01200020704700BF00600240B5
:10349000006402400F64024010B4094B094C0A4A10
:1034A000A04294BF1846104611F0005F21F0F021B1
:1034B00021F0821114BFC16081605DF8044B704738
:1034C000006002400F640240006402400B060CD50D
:1034D0004369AAB143F08003802943610FD0036898
:1034E00001F01E01194301607047802907D0002AAE
:1034F000F5D1036801F01E0123EA01010160704764
:1035000023F0800380294361F3D1704770B4104ADF
:10351000104E114C21F0F02323F0C315B04298BF98
:1035200014468DB1006800F01E0000EAD122890027
:103530004CBF6068206823F08213184002D0101C32
:1035400018BF012070BC7047406900F08002EEE7B0
:10355000006002400F6402400064024010B4094B56
:10356000094C0A4AA04294BF1846104611F0005F69
:1035700021F0F02121F0821114BFC16081605DF85B
:10358000044B7047006002400F6402400064024038
:103590000A4B0B481A68002142F001021A60996038
:1035A0001A6822F0847222F480321A6058601A6815
:1035B00022F480221A60D960704700BF00380240B0
:1035C00010300024024B00221A701870704700BFA0
:1035D0000238024082B000230A4A019302E0B3F5A8
:1035E000A06F08D0136813F4003F019B03F101039F
:1035F0000193019BF3D0034B1868C0F3404002B025
:10360000704700BF00380240034A136823F0F803F4
:1036100043EAC0001060704700380240014B186058
:10362000704700BF00004742064B002201281A7075
:103630001A7005D0042802D105221A70704770470D
:103640001870704770380240014B1860704700BF17
:10365000800E474230B4029C064D40EA04600143AC
:103660005B08013B41EA821242EA0340686030BCD9
:10367000704700BF00380240014B1860704700BF20
:10368000600047420907034B41EA8010C3F88400F9
:10369000704700BF00380240014B1860704700BF00
:1036A00068004742014B1860704700BF4C0047421A
:1036B000034A936823F0EC63194308439060704712
:1036C00000380240034A936823F0784319430843C3
:1036D0009060704700380240034A936823F0030368
:1036E00018439060704700BF00380240024B986852
:1036F00000F00C00704700BF00380240034A936896
:1037000023F0F00318439060704700BF0038024078
:10371000034A936823F4E05318439060704700BF56
:1037200000380240034A936823F4604343EAC00030
:10373000906070470038024010B4214CA36803F039
:103740000C03042B1BD0082B1CD01E4B03601C4AFF
:103750001D499468C4F303140C5DE340436094680E
:10376000C4F382240C5D23FA04F4846092685DF84B
:10377000044BC2F342328A5CD340C3607047134BA0
:103780000360E4E76368616813F4800F636818BF3F
:103790000E4C01F03F020CBF0A49B4FBF2F1C3F337
:1037A000881308BFB1FBF2F101FB03F2044B5B6825
:1037B000C3F3014301335B00B2FBF3F30360C6E7DD
:1037C000003802400024F4001400002000127A00A7
:1037D00000F44073B3F5407F09D108498B6820F0AD
:1037E000704223F4F81322F4407213438B60034AAF
:1037F000136FC0F30B001843106770470038024086
:10380000014B1860704700BF3C0E4742014B1860E7
:10381000704700BF400E4742014B1860704700BF21
:103820005C014742044A136B19B923EA0000106394
:10383000704718431063704700380240044A536BC6
:1038400019B923EA0000506370471843506370476A
:1038500000380240044A936B19B923EA00009063D0
:10386000704718439063704700380240044A136C55
:1038700019B923EA000010647047184310647047B8
:1038800000380240044A536C19B923EA000050641E
:10389000704718435064704700380240044A136967
:1038A00019B923EA0000106170471843106170478E
:1038B00000380240044A536919B923EA00005061F4
:1038C000704718435061704700380240044A9369BA
:1038D00019B923EA0000906170471843906170475E
:1038E00000380240044A136A19B923EA0000106242
:1038F000704718431062704700380240044A536A08
:1039000019B923EA000050627047184350627047AB
:1039100000380240044A136D19B923EA000010650B
:10392000704718431065704700380240044A536DD1
:1039300019B923EA00005065704718435065704775
:1039400000380240044A936D19B923EA00009065DB
:10395000704718439065704700380240044A136E60
:1039600019B923EA000010667047184310667047C3
:1039700000380240044A536E19B923EA0000506629
:10398000704718435066704700380240044A137865
:1039900019B923EA0000107070471843107070477F
:1039A0000D3802404309012B0BD0022B094B0CBFF1
:1039B0001A6F5A6F00F01F0322FA03F000F00100A3
:1039C0007047044B1A6800F01F0322FA03F000F05E
:1039D0000100704700380240024A536F43F0807381
:1039E0005367704700380240034BDB68184214BF2E
:1039F00001200020704700BF00380240014B1870C2
:103A0000704700BF0E38024008B54FF480700121A6
:103A1000FFF774FF4FF480700021BDE80840FFF706
:103A20006DBF00BFF0B544680A6891F804C0D1F8D2
:103A30000CE00E698D684F790D4B24F0407424F42E
:103A40008074224342EA0C22426084684EEA0602F5
:103A50002A432340134343EA470383600A7DC36A32
:103A6000013AD2B223F4700343EA0253C362F0BDB9
:103A7000FDF7FFC00023012202750360037143714B
:103A80008360C3600361704770B490E84400064DE2
:103A90008468C168054B6868324322430A43034087
:103AA00013436B6070BC704700230140E030FCFFA3
:103AB0000023036043608360C3607047836819B963
:103AC00023F001038360704743F001038360704774
:103AD000436823F4400323F40073194341607047A3
:103AE00041628262704700BF436823F01F0319439D
:103AF00041607047054A536818B923F400035360C6
:103B0000704743F400035360704700BF0023014037
:103B1000054A536818B923F480035360704743F48F
:103B200080035360704700BF00230140092970B42F
:103B30001CD9A1F10A0404EB4404C5680726A64079
:103B4000A34025EA06042343062AC3601AD90C2A97
:103B500025D90D3AC46A02EB82021F23934024EA5E
:103B6000030391401943C16270BC704701EB4106E9
:103B700005690724B440B34025EA04042343062A18
:103B80000361E4D8013A446B02EB82021F239340A5
:103B900024EA030391401943416370BC7047073A1C
:103BA000046B02EB82021F23934024EA030391403B
:103BB0001943016370BC7047836843F0804383609E
:103BC000704700BF8068C0F380507047836819B9A0
:103BD00023F480638360704743F48063836070479D
:103BE000836819B923F002038360704743F002032E
:103BF000836070474368013923F4604343EA4131ED
:103C000041607047436819B923F40063436070470B
:103C100043F4006343607047C06C80B2704700BFDC
:103C2000014B1868704700BF08230140836819B929
:103C300023F480738360704743F48073836070471C
:103C4000836819B923F400738360704743F40073E9
:103C500083607047054A536818B923F400535360D2
:103C6000704743F400535360704700BF0023014086
:103C7000092970B41AD801EB410605690724B4403C
:103C8000B34025EA040423430361836B0232C3F388
:103C90000154121BD2B202EB82021F24944023EA89
:103CA000040391401943816370BC7047A1F10A0479
:103CB00004EB4404C5680726A640A34025EA060491
:103CC0002343C360E1E700BF836B013923F4401352
:103CD00043EA01518163704782B000230193019050
:103CE000019B19440191019B1A6002B0704700BF0B
:103CF000836823F47023194381607047836823F439
:103D00004013194381607047836843F480038360E4
:103D1000704700BF8068C0F380507047436819B98E
:103D200023F480634360704743F4806343607047CB
:103D3000436819B923F480534360704743F48053B8
:103D40004360704782B0002301930190019B2833A8
:103D500019440191019B186880B202B0704700BFFE
:103D6000C9B201238B4022B9426822EA03034360AF
:103D70007047426813434360704700BF03681942AD
:103D800014BF012000207047C9430160704700BF85
:103D90004268006810EA112006D0C9B201238B40A6
:103DA000134214BF01200020704700BF6FEA1121A9
:103DB00001607047014BC0B218707047003C024070
:103DC000054A136818B923F480731360704743F4ED
:103DD00080731360704700BF003C0240054A1368BF
:103DE00018B923F400731360704743F40073136031
:103DF000704700BF003C0240054A136818B923F41D
:103E000080631360704743F480631360704700BFA2
:103E1000003C0240024A136843F400631360704799
:103E2000003C0240024A136843F480531360704719
:103E3000003C0240044B1A69002A03DA0349044A91
:103E400059605A60704700BF003C0240230167453B
:103E5000AB89EFCD024A136943F000431361704709
:103E6000003C0240044B5A69D20703D50349044A77
:103E700099609A60704700BF003C02403B2A1908D5
:103E80007F6E5D4C024A536943F0010353617047F2
:103E9000003C0240044B1A7802F0F3021A701A78C0
:103EA00010431870704700BF143C0240024B586921
:103EB000C0F34710704700BF003C0240014B188818
:103EC00080B27047163C0240024B1878AA3818BFDF
:103ED00001207047153C0240024B187800F00C009E
:103EE000704700BF143C0240044A136919B923EA21
:103EF000000010617047184310617047003C024099
:103F0000034BDB68184214BF01200020704700BF3C
:103F1000003C0240014BD860704700BF003C0240AB
:103F20000B4BDA68D1030AD4DA68D20601D5052032
:103F30007047DA6812F0EF0F03D0062070470120B7
:103F40007047DB6813F0020F14BF0720082070478A
:103F5000003C024000B583B008238DF80730FFF71E
:103F6000DFFF8DF807009DF80730012BF7D09DF893
:103F70000700C0B203B05DF804FB00BF70B5064691
:103F800059B301292FD002290CBF4FF400744FF40C
:103F90004074FFF7DFFF082824D1144D2B6923F468
:103FA00040732B612969214329612B6923F0F803B0
:103FB0002B612B6943F002031E432E612B6943F4EE
:103FC00080332B61FFF7C6FF2B6923F002032B61BF
:103FD0002B6923F0F8032B6170BD0C46FFF7BAFF85
:103FE0000828DAD070BD4FF48074F7E7003C024037
:103FF00038B50446FFF7AEFF3CB1012C08D0022CC7
:104000000CBF4FF400744FF44074082804D038BD3E
:1040100008284FF48074FAD10B4D2B6923F44073B8
:104020002B612B691C432C612B6943F004032B612A
:104030002B6943F480332B61FFF78CFF2B6923F04E
:1040400004032B6138BD00BF003C0240F8B50546B3
:1040500016461F46FFF77EFF082800D0F8BD0B4C20
:10406000236923F440732361236943F4407323617C
:10407000236943F001032361C5E90067FFF76AFF85
:10408000236923F001032361F8BD00BF003C024017
:1040900070B505460E46FFF75DFF082800D070BDDD
:1040A0000A4C236923F440732361236943F40073AA
:1040B0002361236943F0010323612E60FFF74AFF68
:1040C000236923F00103236170BD00BF003C02405F
:1040D00070B505460E46FFF73DFF082800D070BDBD
:1040E0000A4C236923F440732361236943F48073EA
:1040F0002361236943F0010323612E80FFF72AFF28
:10410000236923F00103236170BD00BF003C02401E
:1041100070B505460E46FFF71DFF082800D070BD9C
:10412000094C236923F440732361236923612369C4
:1041300043F0010323612E70FFF70CFF236923F086
:104140000103236170BD00BF003C024038B5054645
:104150000C46FFF7FFFE082800D038BD054B188835
:104160001CB9284380B2188038BD80B220EA05000F
:10417000188038BD163C024010B50446FFF7EAFE31
:10418000082804BF014B1C7010BD00BF153C024045
:1041900070B506460C461546FFF7DCFE082807D129
:1041A000044B197801F00F01314329432143197061
:1041B00070BD00BF143C0240034A137843F0020371
:1041C0001370FFF7C7BE00BF143C024008B53C4B5C
:1041D000984224D03B4B98422BD03B4B984232D054
:1041E0003A4B984239D03A4B984240D0394B98429A
:1041F00047D0394B98424ED0384B984255D0384B27
:10420000984200D008BD4FF480700121FFF746FBB3
:104210004FF480700021BDE80840FFF73FBB01204C
:104220000146FFF73BFB01200021BDE80840FFF7F6
:1042300035BB02200121FFF731FB02200021BDE840
:104240000840FFF72BBB04200121FFF727FB0420C8
:104250000021BDE80840FFF721BB08200121FFF73E
:104260001DFB08200021BDE80840FFF717BB102008
:104270000121FFF713FB10200021BDE80840FFF7E4
:104280000DBB20200121FFF709FB20200021BDE804
:104290000840FFF703BB40200121FFF7FFFA402051
:1042A0000021BDE80840FFF7F9BA80200121FFF79F
:1042B000F5FA80200021BDE80840FFF7EFBA00BF03
:1042C000000002400004024000080240000C0240CE
:1042D000001002400014024000180240001C02407E
:1042E0000020024000222DE9F0431346D1F800E0FF
:1042F00001274FF0030C04E00133102B02F10202FE
:1043000028D007FA03F404EA0E05A542F4D1D0F848
:1043100000800E790CFA02F4E44304EA0808C0F8BD
:104320000080D0F8008006FA02F9013E49EA080848
:10433000012EC0F800800FD9C568CE792C40C4602A
:10434000C56806FA02F401332C43102BC46002F155
:104350000202D6D1BDE8F083D0F8089091F805802C
:104360008E7904EA0909C0F80890D0F8089008FA94
:1043700002F848EA0908C0F80880D0F8048028EA62
:1043800005054560D0F8048006FA03F5ADB245EAAC
:1043900008054560D0E700BF00234FF6FF720260BA
:1043A000037143718371C371704700BF82B04FF4D2
:1043B00080330193019B0B430193019BC361C16156
:1043C000019BC361C3690193C369019302B0704744
:1043D0000369194214BF012000207047006980B2B0
:1043E000704700BF4369194214BF01200020704785
:1043F000406980B2704700BF0183704741837047B6
:104400000AB9418370470183704700BF416170471B
:104410004369594041617047CB0800EB830001F0CC
:10442000070110B48900046A0F238B4024EA0303B8
:104430000362036A5DF8044B8A40134303627047CA
:1044400008B5174B984212D0164B98421BD0164B0A
:10445000984200D008BD4FF400400121FFF742FA16
:104460004FF400400021BDE80840FFF73BBA4FF48D
:1044700080500121FFF742FA4FF480500021BDE83F
:104480000840FFF73BBA4FF480400121FFF72AFABA
:104490004FF480400021BDE80840FFF723BA00BF79
:1044A0000030014000380040003C00402DE9F04160
:1044B0000B88B1F80280B1F804C0CA88B1F808E0EE
:1044C0004F898E89CC890588098A48EA030343EA23
:1044D0000C03134343EA0E033B43334343EA040212
:1044E00005F4415313439BB20380838B23F4006391
:1044F0001B041B0C83830182BDE8F081828B8B68D7
:1045000022F47B6222F00F0212042DE9F043120C18
:10451000022482830484B0F81CE0A3421FFA8EFEBA
:1045200051D02F4A8F889468002F14BF4FF0020C8F
:104530004FF0010C240241D4294ACE88D2F884508D
:10454000D2F884405268DFF8A080C5F38815B6F52C
:10455000007F02F03F09C4F30272B8FBF9F405FBD7
:1045600004F4B4FBF2F431D04FEA4C12B4FBF2F293
:1045700002EB82025200B2FBF3F305339AB2194BFD
:10458000A3FB0223DB085A08941E03F00103FD2C51
:1045900094BF42EA032302230C884A8889894EEAA1
:1045A000040E4EF4006E4EEA02020A43334392B206
:1045B0009BB2174303848783BDE8F083946824F497
:1045C00000049460B8E78F88CE88E5E7240A04EBFE
:1045D00084046400B4FBF3F305339AB2CFE700BF61
:1045E00000380240CDCCCCCC00127A000023072248
:1045F0000282038043808380C3800381438183815F
:10460000C38170470023022282600380438083803D
:10461000C3808381704700BF038829B923F040031A
:104620001B041B0C038070479BB243F040030380C4
:10463000704700BF838B29B923F480631B041B0CD4
:10464000838370479BB243F480638383704700BFCA
:10465000038823F400631B041B0C038003889BB2B4
:1046600019430180704700BFB1F5804F038805D022
:1046700023F480431B041B0C038070479BB243F45C
:1046800080430380704700BF4FF6FF639942038861
:1046900004D09BB243F480730380704723F480738B
:1046A0001B041B0C03807047838829B923F0040383
:1046B0001B041B0C838070479BB243F00403838070
:1046C000704700BF838829B923F010031B041B0C1B
:1046D000838070479BB243F010038380704700BF14
:1046E000838B23F47B6323F00F031B0402221B0C38
:1046F00083830284838B8A8970B44D880C888E886A
:104700009BB22B4324F4007143F40063334389B21A
:10471000134300299BB20CBF4FF480720022134355
:10472000838370BC704700BF808980B2704700BF30
:1047300081817047038829B923F400531B041B0CA3
:10474000038070479BB243F400530380704700BF5F
:1047500003889BB243F4805303807047012914BF40
:10476000008B808A80B27047008A80B2704700BF99
:1047700083889BB21AB923EA0101818070471943EB
:1047800081807047090901238B409BB22AB9828836
:1047900092B222EA030383807047828892B2134365
:1047A000838070470389194214BF0120002070479D
:1047B000C94389B20181704710B4848803890122FA
:1047C00001F00F009BB202FA00F01840A4B205D02D
:1047D00009098A40144214BF012000205DF8044BEF
:1047E000704700BF01F00F0101238B40DB439BB2F8
:1047F0000381704708B5604B984235D0B0F1804FC7
:104800003CD05E4B984243D05D4B98424AD05D4BC2
:10481000984251D05C4B984258D05C4B98425FD044
:104820005B4B984266D05B4B98426DD05A4B984296
:1048300076D05A4B98427FD0594B984200F08880EE
:10484000584B984200F08E80574B984200D008BDDC
:104850004FF480700121FFF745F84FF4807000217C
:10486000BDE80840FFF73EB801200146FFF746F8D3
:1048700001200021BDE80840FFF740B801200146B3
:10488000FFF730F801200021BDE80840FFF72AB803
:1048900002200121FFF726F802200021BDE8084090
:1048A000FFF720B804200121FFF71CF804200021A5
:1048B000BDE80840FFF716B808200121FFF712F8FD
:1048C00008200021BDE80840FFF70CB810200121A6
:1048D000FFF708F810200021BDE80840FFF702B8F4
:1048E00020200121FEF7FEFF20200021BDE8084026
:1048F000FEF7F8BF02200121FFF700F80220002197
:10490000BDE80840FEF7FABF4FF480300121FEF702
:10491000F5FF4FF480300021BDE80840FEF7EEBF00
:104920004FF400300121FEF7E9FF4FF40030002181
:10493000BDE80840FEF7E2BF4FF480200121FEF7FA
:10494000DDFF4FF480200021BDE80840FEF7D6BF10
:1049500040200121FEF7C6FF40200021BDE80840AD
:10496000FEF7C0BF80200121FEF7BCFF80200021A0
:10497000BDE80840FEF7B6BF00000140000400405B
:1049800000080040000C00400010004000140040EF
:104990000004014000400140004401400048014043
:1049A00000180040001C004000200040224A0388FC
:1049B00090429BB212D002F5806290420ED0B0F1CC
:1049C000804F0BD0A2F58032904207D002F5806272
:1049D000904203D002F58062904203D14A8823F0CE
:1049E00070031343154A90421ED002F58062904234
:1049F0001AD00A8970B423F440730F4C4E680D88A6
:104A00009BB21343A0420380C662058506D00C4BBF
:104A1000984203D00123838270BC70478B7A03864F
:104A20000123838270BC704703800B884A68C2628E
:104A3000038501238382704700000140001000407D
:104A40000004014000234FF0FF32426003800381E5
:104A500043808372704700BF01858282704700BF28
:104A6000038823F070031B041B0C1943018070475B
:104A700041627047C1627047406A7047008D80B2E2
:104A8000704700BF038829B923F002031B041B0CE5
:104A9000038070479BB243F002030380704700BF5E
:104AA000038829B923F004031B041B0C03807047FF
:104AB0009BB243F004030380704700BF038829B909
:104AC00023F080031B041B0C038070479BB243F050
:104AD00080030380704700BF038823F008031B0492
:104AE0001B0C038003889BB219430180704700BFF1
:104AF000038823F440731B041B0C038003889BB2C0
:104B000019430180704700BF038829B923F00103CE
:104B10001B041B0C038070479BB243F0010303800E
:104B2000704700BFF0B5048CB1F802C08B890F88C4
:104B30001B4E24F001042404240C0484058CB0F8DA
:104B400004E0048B25F0020524F073022D042D0CE3
:104B50004CEA030312042B43120CB0429BB21FFA1F
:104B60008EF442EA070208D00E4DA84205D08968AB
:104B70008480028341630384F0BDCE89B1F812E0E2
:104B80000D8A8F8823F0080324F4407433434EEADF
:104B9000050523F004032C433B43A4B2E7E700BF21
:104BA0000000014000040140F0B5058C0C88B1F80C
:104BB0000CC0B1F802E01E4E25F010052D042D0C9E
:104BC0000584028C8788058B22F020031B0425F4C2
:104BD000E6421B0C120443EA0C13120C43EA0E13B8
:104BE00042EA0422B0429BB2BDB294B208D0114A4C
:104BF000904205D08A688580048382630384F0BD77
:104C000023F08002CB89B1F810E08F884E8A92B2EF
:104C100042EA031225F440654FF6BF73134045EA9C
:104C20008E0543EA071345EA86059BB2ADB2E1E77C
:104C30000000014000040140F0B5058CB1F80CC043
:104C4000B1F802E00C881E4F25F480752D042D0C60
:104C50000584028C8688858B22F400731B0425F062
:104C600073021B0C43EA0C23120443EA0E23120CBA
:104C7000B8429BB2B5B244EA020408D0114A90424D
:104C800005D08A6885808483C2630384F0BD23F4E1
:104C90000062CB89B1F810E08F884E8A92B242EA66
:104CA000032225F440554FF6FF33134045EA0E1515
:104CB00043EA072345EA06159BB2ADB2E1E700BF20
:104CC0000000014000040140028CB1F802C022F44F
:104CD00080521204120C2DE9F041B1F80C80B1F8A9
:104CE00000E00284058C8788828B124E25F40054E4
:104CF00022F4E6432404240C1B0444EA08341B0C6D
:104D000044EA0C3443EA0E23B042A4B2BAB29BB2D6
:104D100009D0094DA84206D0896882808383016446
:104D20000484BDE8F0810D8A22F4804242EA8512B3
:104D300092B2F1E70000014000040140002303802B
:104D40004380838083608381C38103824382704771
:104D500010B4048C0123A4B28B4024EA030321F095
:104D60000804038418307CB10439C1F34E0148F6BD
:104D7000FF730C5823400B5012020B585DF8044B84
:104D800092B21A430A50704749084FF68F7344583D
:104D90002340435043585DF8044B1A434250704738
:104DA0004163704781637047C16370470164704716
:104DB000038B23F070031B041B0C19430183704702
:104DC000038B23F4E0431B041B0C43EA012189B24B
:104DD00001837047838B23F070031B041B0C194362
:104DE00081837047838B23F4E0431B041B0C43EA4D
:104DF000012189B281837047038B23F008031B04D0
:104E00001B0C194301837047038B23F400631B04BD
:104E10001B0C43EA012189B201837047838B23F085
:104E200008031B041B0C194381837047838B23F4F5
:104E300000631B041B0C43EA012189B28183704784
:104E4000038B23F004031B041B0C194301837047DD
:104E5000038B23F480631B041B0C43EA012189B2FA
:104E600001837047838B23F004031B041B0C19433D
:104E700081837047838B23F480631B041B0C43EAFC
:104E8000012189B281837047038B23F080031B04C7
:104E90001B0C194301837047038BC3F30E0343EAD2
:104EA000012189B201837047838B23F080031B04A7
:104EB0001B0C194381837047838BC3F30E0343EAB2
:104EC000012189B281837047038C23F002031B0404
:104ED0001B0C194301847047038C23F008031B0447
:104EE0001B0C194301847047038C23F020031B041F
:104EF0001B0C43EA011189B201847047038C23F033
:104F000080031B041B0C43EA011189B20184704722
:104F1000038C23F400731B041B0C43EA012189B2A8
:104F200001847047038C23F400631B041B0C43EAC9
:104F3000012189B201847047038C23F400531B04C0
:104F40001B0C43EA013189B20184704710B4048C10
:104F50000123A4B28B4024EA03030384038C5DF88D
:104F6000044B8A4013439BB20384704710B4048CF3
:104F70000423A4B28B4024EA03030384038C5DF86A
:104F8000044B8A4013439BB2038470470B88F0B5EF
:104F9000002B32D0042B57D0082B00F08380028CDA
:104FA0004F88B1F804E00E89CD8822F480521204B3
:104FB000120C0284848B028C24F4407122F400537E
:104FC00009055B04090D5B0C41EA0E2143EA073336
:104FD00041EA06319BB243F4805389B28183038452
:104FE000828B22F440621204120C8283838B9BB268
:104FF00043EA05239BB28383F0BD028C4E888D88E3
:105000000B89CC8822F001021204120C0284028B5C
:10501000018C92B222F0F30221F00A0142EA03135A
:10502000090446F001029BB2090C2B431143038390
:105030000184038B23F00C031B041B0C0383038BE1
:105040009BB21C430483F0BD058C4F888E88B1F859
:1050500008E0CC8825F010010904090C0184028BBA
:10506000018C22F440731B051B0D8AB243EA0E33F8
:1050700022F0A0029BB242EA071243EA062392B250
:105080009BB242F0100203830284038B23F440633B
:105090001B041B0C0383038B9BB243EA04239BB2C8
:1050A0000383F0BD068C4F888D880A89CC8826F44E
:1050B00080710904090C0184818B038C89B29BB235
:1050C00021F0F30123F4206341EA021243EA0723AB
:1050D00092B29BB243F480732A4382830384838B0E
:1050E00023F00C031B041B0C8383838B9BB21C4398
:1050F0008483F0BD00230122828003804380C3802B
:1051000003817047B1F802C00B88F0B5B1F804E034
:10511000BCF1000F0CBF02240024BEF1010F0CBF34
:1051200002250125002B4BD0038C0E89C98823F062
:1051300010031B041B0C0384028B078C22F44073A6
:105140001B051B0DBAB243EA063322F0A0029BB244
:1051500042EA0C1243EA0E2392B29BB242F01002D2
:1051600003830284038B23F440631B041B0C03831F
:10517000038B9BB243EA01239BB20383038C23F08E
:1051800001031B041B0C0384038B028C9BB223F0D2
:10519000F30392B243EA061622F00A0343F0010336
:1051A000B6B21C432E4306830484038B23F00C0306
:1051B0001B041B0C0383038B9BB219430183F0BDBB
:1051C000038C0F89CE8823F001031B041B0C03847E
:1051D000018B038C89B221F0F30123F00A0341EA29
:1051E00007111B044CF0010289B21B0C134341EA66
:1051F0000E0EA0F818E00384038B23F00C031B04AD
:105200001B0C0383038B9BB233430383038C23F078
:1052100010031B041B0C0384028B018C22F44073CB
:105220001B051B0D8AB243EA073322F0A0029BB292
:1052300042F0100243EA052542EA0414058304847F
:10524000038B23F440631B041B0C0383038B9BB26F
:1052500043EA0626B6B20683F0BD00BF406B704736
:10526000806B7047C06B7047006C7047038B23F0F6
:105270000C031B041B0C0383038B9BB21943018398
:10528000704700BF038B23F440631B041B0C038394
:10529000038B9BB243EA012189B20183704700BFAF
:1052A000838B23F00C031B041B0C8383838B9BB227
:1052B00019438183704700BF838B23F440631B0431
:1052C0001B0C8383838B9BB243EA012189B28183C8
:1052D000704700BFF0B50B88B1F802E08F88CE8828
:1052E0000D894C898A894EEA03033B4333432B43A0
:1052F000234313439BB2A0F84430F0BD0023038046
:1053000043808380C380038143818381704700BFD2
:10531000B0F8443021B9C3F30E03A0F8443070470D
:105320006FEA43436FEA53439BB2A0F8443070479F
:10533000838829B923F004031B041B0C8380704766
:105340009BB243F004038380704700BF838829B970
:1053500023F001031B041B0C838070479BB243F0B6
:1053600001038380704700BF83899BB21AB923EA87
:1053700001018181704719438181704781827047A3
:10538000038A194214BF012000207047C94389B223
:1053900001827047038A828911EA030092B203D026
:1053A000114214BF01200020704700BFC94389B2D9
:1053B000018270470A43A0F84820704783899BB256
:1053C0001AB923EA0101818170471943818170472D
:1053D000838829B923F008031B041B0C83807047C2
:1053E0009BB243F008038380704700BF038923F01A
:1053F00007031B041B0C0381704700BF038923F0C4
:1054000070031B041B0C1943018103899BB243F0F9
:1054100007030381704700BF602930B4048C24D097
:1054200024F001042404240C0484048B058CA4B20D
:1054300024F0F304ADB244F0010425F00A0544EA77
:10544000031345F001049BB22243038302840389C2
:1054500023F070031B041B0C0B43038103899BB2D5
:1054600043F00703038130BC704724F01004240488
:10547000240C0484048B058C24F440742405ADB200
:10548000240D25F0A00544F4807445F0100544EA8D
:10549000033345EA02129BB292B203830284D6E739
:1054A00010B4048942EA0323E4B223439BB21943B4
:1054B000018103895DF8044B23F077031B041B0C67
:1054C00043F077030381704710B4048942EA032351
:1054D000E4B223439BB21943018103895DF8044B75
:1054E0009BB243F480430381704700BF038923F0DC
:1054F00070031B041B0C194301817047838823F040
:1055000070031B041B0C838083889BB2194381802A
:10551000704700BF038923F007031B041B0C0381A2
:1055200003899BB219430181704700BF038923F0AF
:1055300080031B041B0C038103899BB21943018167
:10554000704700BF10B40489E4B221430A4342EA21
:10555000032399B201815DF8044B704770B406894A
:10556000048B058C24F4407424F00304ADB225F0C0
:10557000220526F0070624042A433604240C360CA0
:1055800044F4807442EA0313314344F001049AB2B4
:1055900001810483028470BC704700BF838829B9ED
:1055A00023F080031B041B0C838070479BB243F0E5
:1055B00080038380704700BFA0F85010704700BF81
:1055C00008B52B4B984219D02A4B984220D02A4B31
:1055D000984229D0294B984232D0294B98423BD04F
:1055E000284B984200D008BD20200121FEF786F903
:1055F00020200021BDE80840FEF780B910200121DD
:10560000FEF77CF910200021BDE80840FEF776B9CE
:105610004FF400300121FEF765F94FF4003000210E
:10562000BDE80840FEF75EB94FF480200121FEF787
:1056300059F94FF480200021BDE80840FEF752B927
:105640004FF400200121FEF74DF94FF40020002116
:10565000BDE80840FEF746B94FF480100121FEF77F
:1056600041F94FF480100021BDE80840FEF73AB937
:10567000001001400044004000480040004C004041
:105680000050004000140140028A8B88F0B592B2AD
:10569000CE880F8904460D4622F440523243A88931
:1056A00049892282A2893B4392B20B4322F4B05231
:1056B00022F00C029BB21343A381A38A9BB223F472
:1056C0004073034385B0A3826846FEF735F81D4B4F
:1056D0009C4229D003F580639C4225D0029AA3897D
:1056E000A6891BB2002B2B6802EB8202B4BF5B00C1
:1056F0009B0002EB8202B2FBF3F0134A36B2A2FB2C
:1057000000356D096423002E05FB13034FEA0515D0
:105710000CDB1B013233A2FB0323C3F343132B43E4
:105720009BB2238105B0F0BD039AD8E7D90032318E
:10573000A2FB0131C1F3421242EA05039BB223816D
:1057400005B0F0BD001001401F85EB5100234FF460
:1057500016510C22016042818380C38003818381C2
:10576000704700BF30B40A884D888C88038AC98886
:105770002A4322430A439BB292B223F47063134339
:10578000038230BC704700BF0023038043808380C6
:10579000C3807047838929B923F400531B041B0C71
:1057A000838170479BB243F400538381704700BFED
:1057B000038B03F47F430383038B9BB21943018361
:1057C000704700BF838919B9C3F30E038381704703
:1057D0006FEA43436FEA53439BB28381704700BF34
:1057E000838A29B923F400631B041B0C838270474E
:1057F0009BB243F400638382704700BFC1F308018A
:10580000818070478088C0F308007047038A23F0C6
:105810000F031B041B0C0382038A9BB219430182F2
:10582000704700BF838929B923F002031B041B0CB6
:10583000838170479BB243F002038381704700BFAE
:10584000838923F400631B041B0C838183899BB22F
:1058500019438181704700BF038A23F020031B0492
:105860001B0C0382038A9BB219430182704700BF5D
:10587000038A29B923F480431B041B0C038270475D
:105880009BB243F480430382704700BF83899BB27D
:1058900043F0010383817047838A29B923F0080309
:1058A0001B041B0C838270479BB243F00803838266
:1058B000704700BF038BDBB20383038B9BB243EAC9
:1058C00001210183704700BF838A29B923F0200397
:1058D0001B041B0C838270479BB243F0200383821E
:1058E000704700BF838A29B923F010031B041B0CE7
:1058F000838270479BB243F010038382704700BFDE
:10590000838A23F004031B041B0C8382838A9BB2CB
:1059100019438182704700BF838A29B923F00203AB
:105920001B041B0C838270479BB243F002038382EB
:10593000704700BF838A9BB21AB923EA01018182B2
:10594000704719438182704710B401F01F04C1F3FE
:1059500042110123012903FA04F311D002290CBFDB
:105960001030143032B902685DF8044B22EA0303A8
:105970000360704702685DF8044B1343036070478F
:105980000C30EFE70388194214BF01200020704754
:10599000C94389B201807047C1F3421210B4012398
:1059A00001F01F04012A03FA04F316D0022A0CBFE7
:1059B000028A828A92B21340028892B24BB1090ADB
:1059C00001238B40134214BF012000205DF8044BDB
:1059D000704718465DF8044B7047828992B21340B5
:1059E000EAE700BF090A01238B40DB439BB2038037
:1059F000704700BF81F0004102E000BF83F0004328
:105A000030B54FEA41044FEA430594EA050F08BF59
:105A100090EA020F1FBF54EA000C55EA020C7FEA1D
:105A2000645C7FEA655C00F0E2804FEA5454D4EB9A
:105A30005555B8BF6D420CDD2C4480EA020281EA64
:105A4000030382EA000083EA010180EA020281EA9C
:105A50000303362D88BF30BD11F0004F4FEA0131EE
:105A60004FF4801C4CEA113102D0404261EB4101FD
:105A700013F0004F4FEA03334CEA133302D0524283
:105A800063EB430394EA050F00F0A780A4F101043F
:105A9000D5F1200E0DDB02FA0EFC22FA05F2801879
:105AA00041F1000103FA0EF2801843FA05F359415F
:105AB0000EE0A5F120050EF1200E012A03FA0EFCDE
:105AC00028BF4CF0020C43FA05F3C01851EBE37108
:105AD00001F0004507D54FF0000EDCF1000C7EEB25
:105AE00000006EEB0101B1F5801F1BD3B1F5001F63
